:020000040800F2
:1000000068060020CD01000825040008B903000897
:10001000D90300087F0200088D0A000800000000D4
:100020000000000000000000000000002D05000896
:1000300083020008000000000905000841060008CE
:10004000E7010008E7010008E7010008E7010008F0
:10005000E7010008E7010008E7010008E7010008E0
:10006000E7010008E7010008E7010008E7010008D0
:10007000E7010008E7010008E7010008E7010008C0
:10008000E7010008E7010008E7010008E7010008B0
:10009000E7010008E7010008E7010008E7010008A0
:1000A000E7010008E7010008E7010008E701000890
:1000B000E7010008E7010008E7010008E701000880
:1000C000E7010008E7010008E7010008E701000870
:1000D000E7010008E7010008E7010008E701000860
:1000E000E7010008E7010008E7010008E701000850
:1000F000E7010008E7010008E7010008E701000840
:10010000E7010008E7010008E7010008E70100082F
:10011000E7010008E7010008E7010008E70100081F
:10012000E7010008E7010008E7010008E70100080F
:1001300000F002F800F03AF80AA090E8000C8244BF
:100140008344AAF10107DA4501D100F02FF8AFF29C
:10015000090EBAE80F0013F0010F18BFFB1A43F0A5
:1001600001031847D8090000F8090000103A24BF1D
:1001700078C878C1FAD8520724BF30C830C144BF0C
:1001800004680C607047000000230024002500264E
:10019000103A28BF78C1FBD8520728BF30C148BFEA
:1001A0000B6070471FB51FBD10B510BD00F031F8D2
:1001B0001146FFF7F7FF00F091FC00F04FF803B491
:1001C000FFF7F2FF03BC00F053F800000948804736
:1001D00009480047FEE7FEE7FEE7FEE7FEE7FEE729
:1001E000FEE7FEE7FEE7FEE704480549054A064B41
:1001F00070470000810600083101000868000020F7
:1002000068060020680200206802002070477047DE
:100210007047754600F028F8AE460500694653461B
:1002200020F00700854618B020B5FFF7DDFFBDE8D8
:1002300020404FF000064FF000074FF000084FF04D
:10024000000B21F00701AC46ACE8C009ACE8C009DE
:10025000ACE8C009ACE8C0098D4670470446AFF36E
:1002600000802046FFF7ABFF0048704704000020E5
:1002700001491820ABBEFEE726000200704700BF10
:10028000FEE770472DE9F0410246002500260020D8
:1002900000230024002791F803C00CF00F0591F80B
:1002A00003C00CF0100CBCF1000F03D091F802C099
:1002B0004CEA050591F800C0BCF1000F31D014687C
:1002C00000202BE04FF0010C0CFA00F3B1F800C055
:1002D0000CEA03069E4220D183004FF00F0C0CFA6B
:1002E00003F7BC4305FA03FC4CEA040491F803C08D
:1002F000BCF1280F06D14FF0010C0CFA00FCC2F83B
:1003000014C00AE091F803C0BCF1480F05D14FF0CA
:10031000010C0CFA00FCC2F810C0401C0828D1D314
:100320001460B1F800C0BCF1FF0F34DD5468002048
:100330002EE000F1080C4FF0010808FA0CF3B1F8B8
:1003400000C00CEA03069E4221D183004FF00F0C3F
:100350000CFA03F7BC4305FA03FC4CEA040491F8D9
:1003600003C0BCF1280F05D100F1080C08FA0CF805
:10037000C2F8148091F803C0BCF1480F07D100F116
:10038000080C4FF0010808FA0CF8C2F81080401C65
:100390000828CED35460BDE8F08100004FF46160BE
:1003A00004490880091D0880091D0880091D08806E
:1003B000704700003434014000BFFEE710B548200C
:1003C00000F040F94FF4A06000F02EF8002141F653
:1003D0001F4000F033F810BD00BFFEE708B5012153
:1003E000182000F093F80320ADF8000010208DF8DD
:1003F000030003208DF8020069460848FFF742FF1A
:100400003020ADF8000010208DF8030003208DF897
:10041000020069460248FFF735FF08BD000C0140A5
:10042000001001407047000002490143024A116078
:10043000704700000000FA050CED00E030B589B00F
:1004400005460C46FFF7CAFF0121480300F05EF89D
:100450000121102000F05AF84FF47070ADF8200020
:1004600018208DF8230003208DF8220008A92448C5
:10047000FFF708FFADF81850ADF814400020ADF8B4
:100480001A00ADF8160005A91E4800F0ADFA60206C
:10049000ADF804000120ADF806000020ADF80A0018
:1004A000ADF80C0001A9174800F042F901A9154860
:1004B00000F094F901A9134800F0F0F901A91148DE
:1004C00000F046FA01210F4800F022F908210D48FA
:1004D00000F07AF908210B4800F0D2F90821094808
:1004E00000F02CFA0821074800F070FA01210548B5
:1004F00000F0F6F80121034800F0FEF809B030BD25
:1005000000100140003401407047000029B1064A44
:1005100092690243044B9A6104E0034A9269824360
:10052000014B9A617047000000100240704710B5FF
:1005300000F002F810BD00000CB500200190009002
:100540003348006840F480303149086000BF3048CB
:10055000006800F4003000900198401C0190009861
:1005600018B90198B0F5A06FF1D12948006800F4DE
:10057000003010B10120009001E0002000900098B0
:10058000012843D12348006840F010002149086049
:100590000846006820F0030008600846006840F044
:1005A000020008601A4840681949486008464068D7
:1005B00048600846406840F48060486008464068EB
:1005C00020F47C1048600846406840F4E810486019
:1005D0000846006840F08070086000BF0C48006862
:1005E00000F000700028F9D00948406820F00300AE
:1005F000074948600846406840F00200486000BF74
:100600000348406800F00C000828F9D10CBD000038
:100610000010024000200240042808D14FF0E021E1
:10062000096941F004014FF0E022116107E04FF049
:10063000E021096921F004014FF0E02211617047C7
:100640007047000010B504466FF00400FFF7E4FFA8
:10065000E11704EB5171C1F3C701074A117010464D
:10066000007800EB4001C1EBC0104FF6FF7101EACA
:10067000C0000249088010BD0000002002000020D8
:1006800010B51348006840F00100114908600846A1
:100690004068104908400E494860084600680E4905
:1006A00008400B4908600846006820F48020086074
:1006B0000846406820F4FE0048604FF41F00886040
:1006C000FFF735FF4FF000600449086010BD0000DF
:1006D000001002400000FFF8FFFFF6FE08ED00E00A
:1006E00021B1028842F08002028004E002884FF6C5
:1006F0007F731A400280704721B1028842F00102E4
:10070000028004E002884FF6FE731A4002807047B0
:1007100031B1B0F8442042F40042A0F8442005E092
:10072000B0F84420C2F30E02A0F844207047000045
:1007300070B5002400220023058C4FF6FE7635406C
:100740000584028C8388048B4FF68F752C40B51E70
:100750002C400D882C43751E2A400D892A434D8854
:100760002A43144DA8420BD0134DA84208D0134D74
:10077000A84205D0124DA84202D0124DA84213D172
:100780004FF6F7752A404D892A434FF6FB752A40EC
:100790008D882A434FF6FF652B404FF6FF552B40BF
:1007A0008D892B43CD892B4383800483CD88858617
:1007B000028470BD002C0140003401400040014023
:1007C00000440140004801400A460021018B4FF6D9
:1007D000F7731940114301837047000070B500247E
:1007E00000220023058C4FF6EF7635400584028CFD
:1007F0008388048B48F6FF752C404FF6FF452C404C
:100800000D884FF6FF7606EA05252C434FF6DF7577
:100810002A400D8906EA05152A434D8806EA051582
:100820002A43154DA84202D0144DA8421DD14FF6BF
:100830007F752A404D894FF6FF7606EA05152A4353
:100840004FF6BF752A408D8806EA05152A434FF6F4
:10085000FF352B404FF2FF752B408D8906EA850549
:100860002B43CD8906EA85052B4383800483CD88FD
:100870000587028470BD0000002C01400034014057
:100880000A460021018B4FF2FF7319404FF6FF73A8
:1008900003EA0223194301837047000070B5002466
:1008A00000220023058C4FF6FF6635400584028C3C
:1008B0008388848B4FF68F752C404FF6FC752C4047
:1008C0000D882C434FF6FF552A400D894FF6FF76D1
:1008D00006EA05252A434D8806EA05252A43154DD3
:1008E000A84202D0144DA8421DD14FF2FF752A40F4
:1008F0004D894FF6FF7606EA05252A434FF6FF3568
:100900002A408D8806EA05252A434EF6FF752B40BE
:100910004DF6FF752B408D8906EA05152B43CD89D1
:1009200006EA05152B4383808483CD88858702845E
:1009300070BD0000002C0140003401400A46002137
:10094000818B4FF6F7731940114381837047000084
:1009500070B5002200230024058C4EF6FF7635404A
:100960000584038C8488828B48F6FF752A404FF6F5
:10097000FF452A400D884FF6FF7606EA05252A43F3
:100980004DF6FF752B400D8906EA05352B434D8842
:1009900006EA05352B430B4DA84202D00A4DA8426A
:1009A00008D14BF6FF752C408D894FF6FF7606EA8D
:1009B00085152C4384808283CD88A0F84050038421
:1009C00070BD0000002C0140003401400A460021A7
:1009D000818B4FF2FF7319404FF6FF7303EA022336
:1009E0001943818370470000002202881D4B984202
:1009F0000ED01D4B98420BD0B0F1804F08D01B4B4E
:100A0000984205D01A4B984202D01A4B984204D112
:100A10004FF68F731A404B881A43174B984207D0F2
:100A2000164B984204D04FF6FF431A40CB881A4326
:100A300002808B8883850B8803850A4B98420BD0F4
:100A4000094B984208D00E4B984205D00D4B984266
:100A500002D00D4B984201D10B7A03860123838289
:100A600070470000002C01400034014000040040A9
:100A700000080040000C004000100040001400403E
:100A800000400140004401400048014000BFFEE733
:100A90000146114A12884A434FF0E0235A6100226E
:100AA0009A611A46126942F001021A6100BF4FF0C2
:100AB000E022106900F001021AB100F48032002A2D
:100AC000F5D04FF0E022126922F001024FF0E0234E
:100AD0001A6100229A61704702000020FFF76EFC45
:100AE0001FE0002441F28830FFF7D2FFFFF756FCE9
:100AF0004FF4FA60FFF7CCFF00BF0AE000231A466C
:100B00001946204600F00EF840F6C410FFF7C0FF6B
:100B1000C834B4F5E15FF1DB41F28830FFF7B8FF8C
:100B200000BFDEE730B5044D28802D1D29802D1D26
:100B30002A802D1D2B8030BD343401405C0B000811
:100B400000000020040000006C010008600B000899
:100B50000400002064060000880100080000000076
:0400000508000131BD
:00000001FF
